{
  "contractName": "Wahl",
  "abi": [
    {
      "inputs": [],
      "payable": false,
      "stateMutability": "nonpayable",
      "type": "constructor",
      "signature": "constructor"
    },
    {
      "constant": false,
      "inputs": [
        {
          "name": "_stimmenAnzahl",
          "type": "uint256"
        }
      ],
      "name": "setStimmenAnzahl",
      "outputs": [
        {
          "name": "",
          "type": "bool"
        }
      ],
      "payable": false,
      "stateMutability": "nonpayable",
      "type": "function",
      "signature": "0x6051ef51"
    },
    {
      "constant": false,
      "inputs": [
        {
          "name": "key",
          "type": "string"
        }
      ],
      "name": "addWaehler",
      "outputs": [
        {
          "name": "",
          "type": "bool"
        }
      ],
      "payable": false,
      "stateMutability": "nonpayable",
      "type": "function",
      "signature": "0x2e883215"
    },
    {
      "constant": false,
      "inputs": [
        {
          "name": "option",
          "type": "string"
        }
      ],
      "name": "addOption",
      "outputs": [
        {
          "name": "",
          "type": "bool"
        }
      ],
      "payable": false,
      "stateMutability": "nonpayable",
      "type": "function",
      "signature": "0xedc550dc"
    },
    {
      "constant": false,
      "inputs": [],
      "name": "wahlStarten",
      "outputs": [
        {
          "name": "",
          "type": "bool"
        }
      ],
      "payable": false,
      "stateMutability": "nonpayable",
      "type": "function",
      "signature": "0x2811a69a"
    },
    {
      "constant": false,
      "inputs": [
        {
          "name": "key",
          "type": "string"
        }
      ],
      "name": "identify",
      "outputs": [
        {
          "name": "",
          "type": "bool"
        }
      ],
      "payable": false,
      "stateMutability": "nonpayable",
      "type": "function",
      "signature": "0xb4c65de3"
    },
    {
      "constant": false,
      "inputs": [
        {
          "name": "option",
          "type": "string"
        }
      ],
      "name": "waehle",
      "outputs": [
        {
          "name": "",
          "type": "bool"
        }
      ],
      "payable": false,
      "stateMutability": "nonpayable",
      "type": "function",
      "signature": "0x561ca0dc"
    },
    {
      "constant": false,
      "inputs": [
        {
          "name": "option",
          "type": "string"
        },
        {
          "name": "_stimmenAnzahl",
          "type": "uint256"
        }
      ],
      "name": "waehle",
      "outputs": [
        {
          "name": "",
          "type": "bool"
        }
      ],
      "payable": false,
      "stateMutability": "nonpayable",
      "type": "function",
      "signature": "0xaae06e18"
    },
    {
      "constant": false,
      "inputs": [],
      "name": "wahlBeenden",
      "outputs": [
        {
          "name": "",
          "type": "bool"
        }
      ],
      "payable": false,
      "stateMutability": "nonpayable",
      "type": "function",
      "signature": "0xeaacbe77"
    },
    {
      "constant": true,
      "inputs": [
        {
          "name": "option",
          "type": "string"
        }
      ],
      "name": "getResults",
      "outputs": [
        {
          "name": "",
          "type": "uint256"
        }
      ],
      "payable": false,
      "stateMutability": "view",
      "type": "function",
      "signature": "0x2ff20f01"
    }
  ],
  "bytecode": "0x608060405234801561001057600080fd5b5033600360006101000a81548173ffffffffffffffffffffffffffffffffffffffff021916908373ffffffffffffffffffffffffffffffffffffffff1602179055506000600360146101000a81548160ff0219169083600281111561007157fe5b02179055506001600481905550610fc38061008d6000396000f3fe608060405260043610610099576000357c0100000000000000000000000000000000000000000000000000000000900463ffffffff1680632811a69a1461009e5780632e883215146100cd5780632ff20f01146101ad578063561ca0dc146102895780636051ef5114610369578063aae06e18146103bc578063b4c65de3146104a6578063eaacbe7714610586578063edc550dc146105b5575b600080fd5b3480156100aa57600080fd5b506100b3610695565b604051808215151515815260200191505060405180910390f35b3480156100d957600080fd5b50610193600480360360208110156100f057600080fd5b810190808035906020019064010000000081111561010d57600080fd5b82018360208201111561011f57600080fd5b8035906020019184600183028401116401000000008311171561014157600080fd5b91908080601f016020809104026020016040519081016040528093929190818152602001838380828437600081840152601f19601f820116905080830192505050505050509192919290505050610753565b604051808215151515815260200191505060405180910390f35b3480156101b957600080fd5b50610273600480360360208110156101d057600080fd5b81019080803590602001906401000000008111156101ed57600080fd5b8201836020820111156101ff57600080fd5b8035906020019184600183028401116401000000008311171561022157600080fd5b91908080601f016020809104026020016040519081016040528093929190818152602001838380828437600081840152601f19601f820116905080830192505050505050509192919290505050610873565b6040518082815260200191505060405180910390f35b34801561029557600080fd5b5061034f600480360360208110156102ac57600080fd5b81019080803590602001906401000000008111156102c957600080fd5b8201836020820111156102db57600080fd5b803590602001918460018302840111640100000000831117156102fd57600080fd5b91908080601f016020809104026020016040519081016040528093929190818152602001838380828437600081840152601f19601f82011690508083019250505050505050919291929050505061091f565b604051808215151515815260200191505060405180910390f35b34801561037557600080fd5b506103a26004803603602081101561038c57600080fd5b8101908080359060200190929190505050610a73565b604051808215151515815260200191505060405180910390f35b3480156103c857600080fd5b5061048c600480360360408110156103df57600080fd5b81019080803590602001906401000000008111156103fc57600080fd5b82018360208201111561040e57600080fd5b8035906020019184600183028401116401000000008311171561043057600080fd5b91908080601f016020809104026020016040519081016040528093929190818152602001838380828437600081840152601f19601f82011690508083019250505050505050919291929080359060200190929190505050610b16565b604051808215151515815260200191505060405180910390f35b3480156104b257600080fd5b5061056c600480360360208110156104c957600080fd5b81019080803590602001906401000000008111156104e657600080fd5b8201836020820111156104f857600080fd5b8035906020019184600183028401116401000000008311171561051a57600080fd5b91908080601f016020809104026020016040519081016040528093929190818152602001838380828437600081840152601f19601f820116905080830192505050505050509192919290505050610c69565b604051808215151515815260200191505060405180910390f35b34801561059257600080fd5b5061059b610dfd565b604051808215151515815260200191505060405180910390f35b3480156105c157600080fd5b5061067b600480360360208110156105d857600080fd5b81019080803590602001906401000000008111156105f557600080fd5b82018360208201111561060757600080fd5b8035906020019184600183028401116401000000008311171561062957600080fd5b91908080601f016020809104026020016040519081016040528093929190818152602001838380828437600081840152601f19601f820116905080830192505050505050509192919290505050610e8a565b604051808215151515815260200191505060405180910390f35b6000600360009054906101000a900473ffffffffffffffffffffffffffffffffffffffff1673ffffffffffffffffffffffffffffffffffffffff163373ffffffffffffffffffffffffffffffffffffffff161480156107195750600060028111156106fc57fe5b600360149054906101000a900460ff16600281111561071757fe5b145b1561074b576001600360146101000a81548160ff0219169083600281111561073d57fe5b021790555060019050610750565b600090505b90565b6000600360009054906101000a900473ffffffffffffffffffffffffffffffffffffffff1673ffffffffffffffffffffffffffffffffffffffff163373ffffffffffffffffffffffffffffffffffffffff161480156107d75750600060028111156107ba57fe5b600360149054906101000a900460ff1660028111156107d557fe5b145b156108695760016002836040518082805190602001908083835b60208310151561081657805182526020820191506020810190506020830392506107f1565b6001836020036101000a038019825116818451168082178552505050505050905001915050908152602001604051809103902060006101000a81548160ff0219169083151502179055506001905061086e565b600090505b919050565b600060028081111561088157fe5b600360149054906101000a900460ff16600281111561089c57fe5b1415610915576001826040518082805190602001908083835b6020831015156108da57805182526020820191506020810190506020830392506108b5565b6001836020036101000a038019825116818451168082178552505050505050905001915050908152602001604051809103902054905061091a565b600090505b919050565b600060016000803373ffffffffffffffffffffffffffffffffffffffff1673ffffffffffffffffffffffffffffffffffffffff168152602001908152602001600020541015801561099557506001600281111561097857fe5b600360149054906101000a900460ff16600281111561099357fe5b145b15610a695760016000803373ffffffffffffffffffffffffffffffffffffffff1673ffffffffffffffffffffffffffffffffffffffff16815260200190815260200160002060008282540392505081905550600180836040518082805190602001908083835b602083101515610a2057805182526020820191506020810190506020830392506109fb565b6001836020036101000a03801982511681845116808217855250505050505090500191505090815260200160405180910390206000828254019250508190555060019050610a6e565b600090505b919050565b6000600360009054906101000a900473ffffffffffffffffffffffffffffffffffffffff1673ffffffffffffffffffffffffffffffffffffffff163373ffffffffffffffffffffffffffffffffffffffff16148015610af7575060006002811115610ada57fe5b600360149054906101000a900460ff166002811115610af557fe5b145b15610b0c578160048190555060019050610b11565b600090505b919050565b6000816000803373ffffffffffffffffffffffffffffffffffffffff1673ffffffffffffffffffffffffffffffffffffffff1681526020019081526020016000205410158015610b8b575060016002811115610b6e57fe5b600360149054906101000a900460ff166002811115610b8957fe5b145b15610c5e57816000803373ffffffffffffffffffffffffffffffffffffffff1673ffffffffffffffffffffffffffffffffffffffff16815260200190815260200160002060008282540392505081905550816001846040518082805190602001908083835b602083101515610c155780518252602082019150602081019050602083039250610bf0565b6001836020036101000a03801982511681845116808217855250505050505090500191505090815260200160405180910390206000828254019250508190555060019050610c63565b600090505b92915050565b6000600115156002836040518082805190602001908083835b602083101515610ca75780518252602082019150602081019050602083039250610c82565b6001836020036101000a038019825116818451168082178552505050505050905001915050908152602001604051809103902060009054906101000a900460ff161515148015610d1c575060016002811115610cff57fe5b600360149054906101000a900460ff166002811115610d1a57fe5b145b15610df3576004546000803373ffffffffffffffffffffffffffffffffffffffff1673ffffffffffffffffffffffffffffffffffffffff1681526020019081526020016000208190555060006002836040518082805190602001908083835b602083101515610da05780518252602082019150602081019050602083039250610d7b565b6001836020036101000a038019825116818451168082178552505050505050905001915050908152602001604051809103902060006101000a81548160ff02191690831515021790555060019050610df8565b600090505b919050565b6000600360009054906101000a900473ffffffffffffffffffffffffffffffffffffffff1673ffffffffffffffffffffffffffffffffffffffff163373ffffffffffffffffffffffffffffffffffffffff161415610e82576002600360146101000a81548160ff02191690836002811115610e7457fe5b021790555060019050610e87565b600090505b90565b6000600360009054906101000a900473ffffffffffffffffffffffffffffffffffffffff1673ffffffffffffffffffffffffffffffffffffffff163373ffffffffffffffffffffffffffffffffffffffff16148015610f0e575060006002811115610ef157fe5b600360149054906101000a900460ff166002811115610f0c57fe5b145b15610f8d5760006001836040518082805190602001908083835b602083101515610f4d5780518252602082019150602081019050602083039250610f28565b6001836020036101000a03801982511681845116808217855250505050505090500191505090815260200160405180910390208190555060019050610f92565b600090505b91905056fea165627a7a723058201bffd59539cb78661c1a446d2725067f55f958e60069c407fec974a5e0930ac20029",
  "source": "pragma solidity ^0.5.0;\n\ncontract Wahl{\n  mapping(address => uint256) vergebbareStimmen;\n  mapping(string => uint256) vergebeneStimmen;\n\n  mapping(string => bool) waehlerKeys; //Oder eine Liste | Inhalt: Schlüssel der Wähler\n\n  address wahlleiter;\n\n  enum WahlStatus{\n  \tinitialisieren,\n  \tlaeuft,\n  \tbeendet\n  }\n\n  WahlStatus status;\n\n  uint256 stimmenAnzahl;\n\n  //Initialiesierung der Wahl\n  constructor () public {\n    wahlleiter = msg.sender;\n    status = WahlStatus.initialisieren;\n    stimmenAnzahl = 1;\n  }\n\n  function setStimmenAnzahl(uint256 _stimmenAnzahl) public returns(bool) {\n    if(msg.sender == wahlleiter&&status == WahlStatus.initialisieren){\n      stimmenAnzahl = _stimmenAnzahl;\n      return true;\n    }\n    return false;\n  }\n\n  function addWaehler(string memory key) public returns(bool) {\n    if(msg.sender == wahlleiter&&status == WahlStatus.initialisieren){\n      waehlerKeys[key] = true;\n      return true;\n    }\n    return false;\n  }\n\n  function addOption(string memory option) public returns(bool) {\n    if(msg.sender == wahlleiter&&status == WahlStatus.initialisieren){\n      vergebeneStimmen[option] = 0;\n      return true;\n    }\n    return false;\n  }\n\n  //Durchführen der Wahl\n  function wahlStarten() public returns(bool){\n    if(msg.sender == wahlleiter&&status == WahlStatus.initialisieren){\n      status = WahlStatus.laeuft;\n      return true;\n    }\n    return false;\n  }\n\n  function identify(string memory key) public returns(bool){\n    if(waehlerKeys[key] == true&&status == WahlStatus.laeuft){\n      //wenn ja\n      vergebbareStimmen[msg.sender] = stimmenAnzahl;\n      waehlerKeys[key] = false;\n      return true;\n    }\n    return false;\n  }\n\n  function waehle(string memory option) public returns(bool) {\n    if(vergebbareStimmen[msg.sender] >= 1&&status == WahlStatus.laeuft){\n      vergebbareStimmen[msg.sender] -= 1;\n      vergebeneStimmen[option] += 1;\n      return true;\n    }\n    return false;\n  }\n  \n  function waehle(string memory option, uint256 _stimmenAnzahl) public returns(bool) {\n    if(vergebbareStimmen[msg.sender] >= _stimmenAnzahl&&status == WahlStatus.laeuft){\n      vergebbareStimmen[msg.sender] -= _stimmenAnzahl;\n      vergebeneStimmen[option] += _stimmenAnzahl;\n      return true;\n    }\n    return false;\n  }\n\n  //Ende der Wahl\n  function wahlBeenden() public returns(bool){\n  \tif(msg.sender == wahlleiter){\n      status = WahlStatus.beendet;\n      return true;\n    }\n    return false;\n  }\n\n  function getResults(string memory option) public view returns(uint256){\n    if(status == WahlStatus.beendet){\n      return vergebeneStimmen[option];\n    }\n    return 0;\n  }\n}\n",
  "sourcePath": "C:/Users/vvaske.SVA/Desktop/Studium/Blockchain Projekt/Solidity/electchain/truffle/contracts/Wahl.sol",
  "compiler": {
    "name": "solc",
    "version": "0.5.0+commit.1d4f565a.Emscripten.clang"
  },
  "schemaVersion": "3.0.0",
  "updatedAt": "2018-12-28T14:06:58.878Z",
  "devdoc": {
    "methods": {}
  },
  "userdoc": {
    "methods": {}
  }
}